:100A400047656E65726174652050696E00456E740D
:100A500065722050617373776F726400446F6F72B8
:100A600020556E6C6F636B00446F6F72204C6F6328
:100A70006B0053797374656D2044697361626C65B2
:100A8000640057726F6E672050617373776F726482
:100A900000456E746572204F6C642050696E00537F
:0E0AA000797374656D2044697361626C650042
:100DBD0041002500410023004100000A41002D00A3
:040DCD0041001800C9
:100E3E00758901758CB7758AFED28CD2AFD2A92274
:03000B00020CC51F
:100CC500C0E0C083C082C0D075D000C004C005B2EA
:100CD500A030A00590001A8003900015E0FCA3E069
:100CE500FDECF58C8D8AD005D004D0D0D082D08390
:030CF500D0E0321A
:10092700E4FBFA79347843120528E4FBFA79207856
:100937004112041F90002F1207569000337448F09D
:10094700A37401F0900033E0FCA3E0FDE41205CAB4
:10095700E4FBFA79C8784212052890002FE0F8A343
:10096700E0F9A3E0FAA3E0FB12041F1206039000CC
:100977001AEEF0A3EFF090001AE0FEA3E0FFC374B5
:10098700019FFD74489EFC900015F0A3EDF0C37421
:10099700FF9F90001BF074FF9E90001AF0C374FF36
:0C09A7009D900016F074FF9C900015F06D
:0109B3002221
:100C55001207B7AE07900025E0FF2401F582E434C2
:100C650000F583EEF074012FF582E43400F583E09E
:100C7500FD120D87900025E0FD2401F582E4340086
:090C8500F583E0FB7F01020E4E35
:10000E00120E06120E3E0203B690002EE01460573A
:10001E001470030202491470030202AA240370E949
:10002E007FD4120DA2900014EFF0F470377BFF7A9C
:10003E000A7940FDFF120C8E900025E0C394065005
:10004E000B120C55900025E004F080BD7DAA7FD4E4
:10005E00120D87E4900025F090002E04F07FB81268
:10006E000D1E80A5020281120E7D7FFE120DA29042
:10007E000013EFF064067003020294E4900023F084
:10008E00900023E0FFC39406501A120DA290002395
:10009E00E02427F582E43400F583EFF0900023E0AE
:1000AE0004F080DC90002CE0FFE4FCFDFE7BA07AE7
:1000BE00867901F81206F990002BE0C454F02FFF58
:1000CE0090002AE075F0E8A42FFF900029E075F06B
:1000DE0064A42FFF900028E075F00AA42FFF900073
:1000EE0027E02F900017F07BFF7A0A794DE4FDFF91
:1000FE00120C8EE4900023F01207B7900022EFF05E
:10010E00BF630890002E7403F08030900022E0FF51
:10011E00A3E0FD240DF582E43400F583EFF0740DB9
:10012E002DF582E43400F583E0FB7F01120E4E9034
:10013E000023E004F0E0C3940640BD7FD07E07129A
:10014E000D44900012E0FFE4FCFDFE7BA07A867960
:10015E0001F81206F9900011E0C454F02FFF900040
:10016E0010E075F0E8A42FFF90000FE075F064A486
:10017E002FFF90000EE075F00AA42FFF90000DE007
:10018E002F900026F090002EE064037003020017FB
:10019E00900026E0FF900017E06F6003020240120D
:1001AE000E7D7BFF7A0A795CE4FDFF120C8E7F05D3
:1001BE007E00120B557FE87E03120D447F007E00F9
:1001CE007D007C001209277FF47E01120D44E4901D
:1001DE000023F0900000E014F0E0FB7A0090003372
:1001EE007401F07D06FF120AAE7FA0120D1E900064
:1001FE0023E004F0E0C3940A40D97F057E00120B81
:10020E0055120E7D7BFF7A0A7968E4FDFF120C8E83
:10021E007F007E007D347C431209277FD07E07123B
:10022E000D44120E7DE490002DF0900000740AF043
:10023E00804190002E7402F002001790002DE0C352
:10024E0094055038120E7D7BFF7A0A7982E4FDFF09
:10025E00120C8E90002DE0FB7A009000337401F0AA
:10026E007D05FF120AAE7F0A7E00120B5590002DFF
:10027E00E004F090002E7401F00200177D067FFA64
:10028E00120D87120E7D7BFF7A0A7972E4FDFF1242
:10029E000C8E7F887E13120B55020017120E7D7B7B
:1002AE00FF7A0A7991E4FDFF120C8EE4900023F0A0
:1002BE00900023E0FFC39406501A120DA290002363
:1002CE00E0241CF582E43400F583EFF0900023E087
:1002DE0004F080DC900021E0FFE4FCFDFE7BA07AC0
:1002EE00867901F81206F9900020E0C454F02FFF31
:1002FE0090001FE075F0E8A42FFF90001EE075F04F
:10030E0064A42FFF90001DE075F00AA42FFF90004B
:10031E001CE02F900019F0E4900023F01207B79024
:10032E000023E0FD2407F582E43400F583EFF0743A
:10033E00072DF582E43400F583E0FB7F01120E4EAB
:10034E00900023E004F0E0C3940640D07FD07E07F7
:10035E00120D4490000CE0FFE4FCFDFE7BA07A86BB
:10036E007901F81206F990000BE0C454F02FFF90BB
:10037E00000AE075F0E8A42FFF900009E075F06424
:10038E00A42FFF900008E075F00AA42FFF9000073D
:10039E00E02FFF900024F0900019E0B507127DFFCA
:1003AE007FD4120D87120E7DE490002EF0020017FE
:1003BE0090002DE0C394035038120E7D7BFF7A0A15
:1003CE007982E4FDFF120C8E900018E0FB7A00900B
:1003DE0000337401F07D05FF120AAE7F0A7E001213
:1003EE000B55900018E004F090002E7403F00200FC
:1003FE00177D067FFA120D87120E7D7BFF7A0A7922
:10040E009FE4FDFF120C8E7F887E13120B550200A7
:01041E0017C6
:100E06007F38120E1A7F0C120E1A7F01120E1A7FED
:040E160080020E1A2E
:100E1A008F80C2A5C2A6120CF8C2A77F0A7E000262
:020E2A000CFEBC
:100E2C008F80C2A5D2A6120CF8C2A77F0A7E000240
:020E3C000CFEAA
:0B0BDC0090003BEBF0A3EAF0A3E9F06F
:100BE700E4A3F0A3F090003BE0FBA3E0FAA3E0F955
:100BF700A3E0FEA3E0F5828E83120684FF60131242
:100C07000E2C90003FE004F070DB90003EE004F013
:020C170080D388
:010C190022B8
:100DEF00EF7005ED24808003ED24C0900035F09066
:070DFF000035E0FF020E1AAF
:060CF800D2A77F0A7E0076
:100CFE00E4FDFCC3ED9FEC9E5015E4FBFA0BBB002C
:0F0D0E00010AEB64704A70F50DBD00010C80E422
:010D1D0022B3
:100D1E00E4FDFCEFFBC3ED9BEC94005018758D4B7E
:100D2E00758BFDC28FD28E308FFDC28FC28E0DBDE0
:050D3E0000010C80DE45
:010D4300228D
:100D4400E4FDFCC3ED9FEC9E5018758CFC758A6421
:100D5400C28DD28C308DFDC28DC28C0DBD00010CB4
:020D640080E12C
:010D6600226A
:050E7D007F01020E1AC6
:0E0B0000900035EEF0A3EFF0A3ECF0A3EDF0C3
:100B0E00A3E4F0A304F0E4FBEBFFD3900038E09FE6
:100B1E007480F8900037E0648098401E900039E0B1
:100B2E00FEA3E0FF900035E0FCA3E0FD1206B190BD
:100B3E000039EEF0A3EFF00B80CE900039E0FEA36B
:020B4E00E0FFC6
:010B50002282
:080AAE00900031EAF0A3EBF027
:100AB600120DEF900033E0A3F0900034E0FFD394E2
:100AC600004036EF24FFFDE434FFFC7F0A7E00126F
:100AD6000B00900031E0FCA3E0FDCFCDCFCECCCE15
:100AE6001206C37C007D0A1206C3ED2430FF120EE7
:090AF6002C900034E014F080C0E3
:010AFF0022D4
:100E4E0090002FEBF0120DEF90002FE0FF020E2C12
:0B0C8E0090002FEBF0A3EAF0A3E9F0C8
:100C9900120DEFE4900032F090002FE0FBA3E0FA90
:100CA900A3E0F9A3E0F582758300120684FF600BC7
:0B0CB900120E2C900032E004F080DDF1
:010CC400220D
:040DD100410043009A
:040B51007F017E00A2
:080B550090002FEEF0A3EFF079
:100B5D00E4A3F0900031E0FFC3900030E09F9000DF
:100B6D002FE094004028E4FFC295E4FE0EEEB4326F
:100B7D00FBD295E4FE0EEEB432FB0FEFB4FAE97F33
:0E0B8D00F47E01120D44900031E004F080C5AA
:010B9B002237
:1007B700C297D296D295D2942093107F647E00126E
:1007C7000D44209306120B517F37222092107F642D
:1007D7007E00120D44209206120B517F3822209181
:1007E700107F647E00120D44209106120B517F3951
:1007F700222090107F647E00120D44209006120B79
:10080700517F2F22D297C296D295D2942093107FF0
:10081700647E00120D44209306120B517F34222070
:1008270092107F647E00120D44209206120B517FB6
:1008370035222091107F647E00120D44209106120C
:100847000B517F36222090107F647E00120D4420CA
:100857009006120B517F2A22D297D296C295D29434
:100867002093107F647E00120D44209306120B51D3
:100877007F31222092107F647E00120D4420920661
:10088700120B517F32222091107F647E00120D449B
:10089700209106120B517F33222090107F647E0037
:1008A700120D44209006120B517F2D22D297D2961B
:1008B700D295C29420932B209319900043E0C394C0
:1008C7000A5010120B51900043E004F07FA0120D64
:1008D7001E80E4900043E0C3940A40037F63227FB5
:1008E70043222092107F647E00120D44209206124C
:1008F7000B517F30222091107F647E00120D44201F
:100907009106120B517F3D222090107F647E0012CA
:100917000D44209006120B517F2B22D2940207B769
:100D6700E4FDFCD3ED9FEC9E5015E4FBFA0BBB00B2
:0F0D7700010AEB64724A70F50DBD00010C80E4B7
:010D8600224A
:0D0E5E00D2A00000D2A10000C2A00000221E
:090E6B00C2A1D2A0D2A1C2A022B2
:090E7400C2A1C2A0D2A1D2A022A9
:0F0DD6007E00120B9C120DE5AF037E00120B9CEA
:0A0DE500C2A1D2A0D2A120A0FD22DD
:07000300C2A1D2A0D2A1228C
:100B9C00AD07AC06E4900040F0900040E0FFC39439
:100BAC0008502CC2A17E007480A807088006CEA233
:100BBC00E713CE13D8F8FFEE5CFEEF5D4E6003D367
:100BCC008001C392A0D2A1900040E004F080CA2220
:100C1A00E4900042F0900041F0900041E0FFC3945C
:100C2A00085022C2A1D2A130A013A3E0FEA80774E3
:100C3A0080088002C313D8FC4E900042F090004115
:0B0C4A00E004F080D4900042E0FF22A4
:100D8700AB05AA07120E5E7FA0120DE0AF02120D8F
:0B0D9700D6120E747F0A7E00020D676A
:020DA200AB079D
:100DA400120E5E7FA0120DD6120E6B7FA1120DE003
:090DB400120C1A120003020E7465
:10041F00EC4D6011E8497017ED33EC3304600DE4D7
:10042F00FCFFFEFD22E933E8330470F802066F1279
:10043F00063A58046009E4CC24815006285009027A
:10044F000679284003020676C0E0EB4A7044B98073
:10045F0006D0E0FB020665EF4E701CBD8008EBFF77
:10046F00EAFEE9FD80EBE98DF0A4FEE5F002050858
:10047F00E9CDF9EAFEEBFFEF89F0A4FCE5F0CE89B8
:10048F00F0A42EFFE435F0CD89F0A42DFEE435F075
:10049F008067EF4E7005BD80D780C3EF8BF0A4ACA3
:1004AF00F0EE8BF0A42CFCE435F0F8EF8AF0A42CDE
:1004BF00E5F038FCE433CB8DF0A42CFCE5F03BF8F1
:1004CF00EE8AF0A42CFCE5F038F8E433CF89F0A4E1
:1004DF002CFCE5F038CF3400CE89F0A42FFFE5F0E7
:1004EF003EFEE433C98DF0A42EFEE5F039CD8AF03F
:1004FF00A42FFFE5F03EFEE43DFD33D0E0FB5007B7
:10050F000BBB000F020679EC2CFCEF33FFEE33FE32
:06051F00ED33FD02065160
:10052500020679EC5D046005E85904700302066F64
:1005350012063A580460F6EC4860F2EC7004FDFED1
:10054500FF22C860DB2481C85009C39860025006A9
:100555000206769850CAF582E9294B4A7005AB82A6
:1005650002066575F0007C1A7880C3EF9BEE9AED64
:1005750099400DC3EF9BFFEE9AFEED99FDE842F021
:10058500DC23ACF0D0E0FFD0E0FED0E0FDAB822074
:10059500E7101BEB60BAEC2CFCEF33FFEE33FEEDFE
:1005A50033FD020651E803F830E705C0F075F000A9
:1005B500EF2FFFEE33FEED33FD40B830E7C280AAE2
:1005C50075F020800E75F010800575F0087D007EB1
:1005D500007F003392D530D503120748EC33401025
:1005E500EF33FFEE33FEED33FDEC33FCD5F0ED22BA
:0E05F500E5F0247EA2D513CC92E7CDCEFF22F6
:10060300EDD2E7CD33EC3392D524814006E4FFFEEF
:10061300FDFC22FCE4CFCECDCC24E0501174FF804E
:10062300EDC3CC13CCCD13CDCE13CECF13CF0470EB
:07063300F030D5DE0207489C
:10063A00E9D2E7C933E833F892D5EDD2E7CD33EC06
:07064A0033FC5002B2D5227F
:10065100EC30E7100FBF000C0EBE00080DBD00040A
:100661000BEB6014A2D5EB13FCED92E7FD2274FFB6
:10067100FCFDFEFF22E480F8A2D574FF13FC7D800F
:03068100E480EF23
:030000000209B43E
:0C09B400787FE4F6D8FD7581200209FB75
:10068400BB010CE58229F582E5833AF583E022502B
:1006940006E92582F8E622BBFE06E92582F8E22275
:0D06A400E58229F582E5833AF583E493228F
:1006B100EF8DF0A4A8F0CF8CF0A428CE8DF0A42E5D
:0206C100FE2217
:1006C300C2D5EC30E709B2D5E4C39DFDE49CFCEE52
:1006D30030E715B2D5E4C39FFFE49EFE120762C361
:1006E300E49DFDE49CFC800312076230D507C3E45C
:0606F3009FFFE49EFE22C1
:1006F900E88FF0A4CC8BF0A42CFCE98EF0A42CFCA0
:100709008AF0EDA42CFCEA8EF0A4CDA8F08BF0A41D
:100719002DCC3825F0FDE98FF0A42CCD35F0FCEB7C
:100729008EF0A4FEA9F0EB8FF0A4CFC5F02ECD3941
:0F073900FEE43CFCEAA42DCE35F0FDE43CFC22AE
:0E074800C3E49FFFE49EFEE49DFDE49CFC22C2
:0C075600ECF0A3EDF0A3EEF0A3EFF02216
:1009C00002000EE493A3F8E493A34003F68001F23F
:1009D00008DFF48029E493A3F85407240CC8C33338
:1009E000C4540F4420C8834004F456800146F6DF07
:1009F000E4800B0102040810204080900DBDE47ECD
:100A0000019360BCA3FF543F30E509541FFEE493FB
:100A1000A360010ECF54C025E060A840B8E493A3C2
:100A2000FAE493A3F8E493A3C8C582C8CAC583CAED
:100A3000F0A3C8C582C8CAC583CADFE9DEE780BEA5
:010DD500001D
:10076200BC000BBE0029EF8DF084FFADF022E4CC7B
:10077200F875F008EF2FFFEE33FEEC33FCEE9DEC44
:10078200984005FCEE9DFE0FD5F0E9E4CEFD22ED8A
:10079200F8F5F0EE8420D21CFEADF075F008EF2FD4
:1007A200FFED33FD4007985006D5F0F222C398FDC5
:0507B2000FD5F0EA2262
:00000001FF
