:10020000454E5445522050494E204E554D42455280
:100210000050494E20434F525245435400444F4FE3
:1002200052204F50454E45440057524F4E472050A4
:03023000494E0034
:0802D400060D31323334350010
:0F01B2007F0F1202B87F381202B87F011202B815
:1001C100E4F513F5147F801202B87BFF7A027900FF
:1001D1001202331202947FC01202B8740D2514F872
:1001E100E6601712000374082514F8A6071202949A
:0D01F1000514E51470E5051380E1120140CE
:0201FE0080C1BE
:070291001202C67FE87E03A4
:10029800E4FDFCC3ED9FEC9E5015E4FBFA0BBB009C
:0F02A800010AEB640A4A70F50DBD00010C80E4F9
:0102B7002224
:0E02B8008F80C2A6C2A5D2A7120294C2A722AE
:0E02C6008F80D2A6C2A5D2A7120294C2A72290
:060233008B158A168917E5
:10023900E4F518F519AB15AA16A9178519828518B9
:1002490083120264FF600D1202C60519E51970E5F3
:0B025900051880E17F107E270202984C
:10000300E4FFFEEF4E60030200B3C294D295D29692
:10001300D2972090087F311202917F3122209108DC
:100023007F321202917F32222092087F3312029193
:100033007F3322D294C295D296D2972090087F34F0
:100043001202917F34222091087F351202917F356D
:10005300222092087F361202917F3622D294D295C3
:10006300C296D2972090087F371202917F372220C1
:1000730091087F381202917F38222092087F39122B
:1000830002917F3922D294D295D296C297209008BA
:100093007F2A1202917F2A222091087F3012029137
:1000A3007F30223092030200067F231202917F23C6
:0100B300222A
:10014000E50D65087050E50E6509704AE50F650A12
:100150007044E510650B703EE511650C70381202B5
:10016000947F011202B87F811202B87BFF7A027974
:1001700011120233120294D2B3C2B47FC11202B878
:100180007BFF7A02791D1202337F107E27120298BC
:10019000D2B3C2B480167F011202B87F801202B8B7
:1001A0007BFF7A0279291202331202947F01120234
:0201B000B82273
:030000000200B447
:0C00B400787FE4F6D8FD7581190200FB8E
:10026400BB010CE58229F582E5833AF583E022504F
:1002740006E92582F8E622BBFE06E92582F8E22299
:0D028400E58229F582E5833AF583E49322B3
:1000C0000201B2E493A3F8E493A34003F68001F2A3
:1000D00008DFF48029E493A3F85407240CC8C33341
:1000E000C4540F4420C8834004F456800146F6DF10
:1000F000E4800B01020408102040809002D4E47ECA
:10010000019360BCA3FF543F30E509541FFEE49304
:10011000A360010ECF54C025E060A840B8E493A3CB
:10012000FAE493A3F8E493A3C8C582C8CAC583CAF6
:10013000F0A3C8C582C8CAC583CADFE9DEE780BEAE
:0102DC000021
:00000001FF
