:030000000207E70D
:0C07E700787FE4F6D8FD75817C02082EB6
:10066C004B455950414944002044495341424C4563
:10067C0044200050415353574F5244204348414E5D
:10068C00474500202020204D4F4F442020202000A3
:10069C00456E746572206F6C6420706173732000FA
:1006AC00456E746572206E657720706173732000DF
:1006BC002057524F4E472050415353574F524420CE
:1006CC000050617373206368616E67652000577218
:1006DC006F6E6720417474656D707420004B4559C2
:1006EC00504149442044495341424C450020504517
:1006FC00524D414E454E54202000454E54455220FB
:10070C004741544520504153530050494E20434FCC
:10071C00525245435400444F4F52204F50454E4582
:0C072C00440057524F4E472050494E00E9
:1008C00005620000000000012C0002510000021C23
:1008D000000020212D4445415220454D504C4F5998
:1008E000455320594F55522050415353574F52446E
:1008F0002049532020000A0D0000000000000000E5
:050900000000011700DA
:100A1F00E4F567F568742D2568F8E6F5993099FDCA
:100A2F00C2997F647E00120A520568E5687002055C
:0B0A3F0067C39406E567940040DB22CB
:080738008F6C8E6B8D6A8C69D9
:10074000E4757101F570F56FF56EFFFEFDFCAB6CA5
:10075000AA6BA96AA869C312034E700A7F30120BF4
:10076000717F01020B71AF71AE70AD6FAC6EAB6C8F
:10077000AA6BA96AA869C312034E401D056DAF712B
:10078000AE70AD6FAC6EE47B0AFAF9F81202318FED
:10079000718E708D6F8C6E80CD156DC3E56D64802C
:1007A00094804039E47B0AFAF9F8AF6CAE6BAD6A1D
:1007B000AC691202BCEB2430FF740D256DF8A6075E
:1007C000AF6CAE6BAD6AAC69E47B0AFAF9F8120261
:1007D000BC8F6C8E6B8D6A8C69156D80BE7B007AC8
:0607E00000790D120A99D8
:0107E60022F0
:100ABE00D28EE4FDFCC3ED9FEE6480F8EC6480986A
:100ACE00500C308FFDC28F0DBD00010C80E7C28E21
:010ADE0022F5
:1000030075A882758902758CE9C2A0C2A1120BB9C9
:10001300120B00120873EE3395E0FDFCEF24A0FFF2
:10002300EE3486FEED3401FDE43C8F618E608D5F1E
:10003300F55EAD617F017E00120A72AF61AE60AD05
:100043005FAC5E120738E51714604A1460561470EB
:10005300030200EC240370EE758920758DFD7598FD
:1000630050D28EE4F557742D2557F8E6F59930995B
:10007300FDC2990557E557B427ECE4F557740D25F0
:1000830057F8E6F5993099FDC2990557E557B40E2F
:10009300EC051780B17F01120B7112094B7F01121E
:1000A3000B7180A2054EE54EC39402501C7F0212D1
:1000B3000B717BFF7A06796C120A997FC0120B7160
:1000C3007BFF7A067974120A99D2957F027E001219
:1000D3000A52C2957F017E00120A52D29530B103B3
:1000E300020049751703020049E52CC3940340033A
:1000F3000201ECE4F5797F02120B717F01120B719F
:100103007BFF7A06797F120A997FE87E031209F44E
:100113007FC0120B717BFF7A06798F120A997F10C9
:100123007E271209F47F01120B717BFF7A06799CFB
:10013300120A99E4F57A7FC0120B71120593AF1B73
:10014300AE1AAD19AC18AB61AA60A95FA85EC31261
:10015300034E70327F01120B717BFF7A0679AC126A
:100163000A997FC0120B717F647E00120A52120536
:1001730093851B61851A6085195F85185EE4F558C0
:10018300F559F54E805A052C7F01120B717BFF7ACE
:100193000679BC120A997F01120B717BFF7A0679EB
:1001A300CD120A997FC0120B717BFF7A0679DA129E
:1001B3000A99E4755D01F55CF55BF55AE52C24308D
:1001C300FF120BAF7F107E271209F47517017F0111
:1001D300120B71E52CB40303751702E4F558F559B6
:1001E300E4F54E7517010200497BFF7A0679E9129F
:1001F3000A997FC0120B717BFF7A0679F9120A996B
:03020300020049AD
:10059300120481EF3395E0F54F8F50E57A60030243
:1005A300066B1204818F1E1204818F1F1204818F28
:1005B300201204818F211204818F27AE4FAF50E4A4
:1005C300FCFD7BA07A867901F8120231C004A905EB
:1005D300AA06AB07AF1E7E007C277D1012021FE424
:1005E300FCFDD000EB2FFFEA3EFEED39FDEC38FCBD
:1005F300C004A905AA06AB07AF1F7E007C037DE8F4
:1006030012021FE4FCFDD000EB2FFFEA3EFEED39A2
:10061300FDEC38FCA804A905AA06AB07E52075F094
:1006230064A4FFE4FCFDEB2FFFEA35F0FEED39FD9A
:10063300EC38FCA804A905AA06AB07E52175F00A66
:10064300A4FFE4FCFDEB2FFBEA35F0FAED39F9ECFE
:1006530038F8E4FEEB2527FFEE3AFEED39FDEC38E2
:090663008F1B8E1A8D19F5182267
:10094B007BFF7A077906120A997FC0120B7120B1CF
:10095B0003751703120593E57A701C851B5D851AC9
:10096B005C85195B85185A20B1037517037FE87EE8
:08097B00031209F412035F22CC
:10035F00AF5DAE5CAD5BAC5AAB61AA60A95FA85E46
:10036F00C312034E60030204257FE87E031209F4D3
:10037F007F01120B717F81120B717BFF7A07791648
:10038F00120A99E4F555F556D2B07F787E00120A1D
:10039F00BEC2B07FD07E02120ABE7517010556E5A8
:1003AF005670020555C3943CE555940040DAE4F5C8
:1003BF0053F554D2957F027E00120A52C2957F01E7
:1003CF007E00120A520554E55470020553C394B0CF
:1003DF00E553940440DDD2957FC1120B717BFF7AF8
:1003EF00077922120A99E4F555F556D2B07F177E98
:1003FF0000120ABEC2B07F680E120ABEE4F553F5B2
:10040F00540556E55670020555C3943CE5559400C6
:10041F0040D9751701220559E559700205587F011A
:10042F00120B717F80120B717BFF7A07792E120AE4
:10043F00997F647E001209F47FC0120B717BFF7AE3
:10044F000679DA120A99E5592430FF120BAFAD592C
:10045F007F027E00120A72751701E5596403455831
:10046F0070087517027F01120B717F107E2712091A
:02047F00F42265
:100B60007589018D8A8F8CD28C308DFDC28CC28D9F
:010B70002262
:040ADF00AE05AC07AD
:100AE300E4FBFAD295AF04AD06120B60C295120B6C
:0C0AF300600BBB00010ABA03EABBE8E795
:010AFF0022D4
:100B00007F147E00120A527F38120B717F0E120B77
:100B1000717F06120B717F01120B717F80020B71C6
:100A99008B728A738974AB72AA73A9741202066085
:100AA900130574E5747002057314F9120206FF1236
:050AB9000BAF80E222FA
:100B71008F80C2A6120A4AC2A77F057E00020A52CE
:0A0BAF008F80D2A6120A4AC2A722C4
:080A4A00C2A5D2A77F017E00C6
:100A5200E4FDFCC3ED9FEC9E5015E4FBFA0BBB00DA
:0F0A6200010AEB64704A70F50DBD00010C80E4D1
:010A71002262
:06090500017A00017900F7
:0409F0007FE87E031B
:0409F400AD07AC0699
:1009F800E4FBFAED25E0FFEC33FEC3EB9FEA9E50E3
:100A080015E4FFFE0FBF00010EEF640A4E70F50BF0
:060A1800BB00010A80DDB5
:010A1E0022B5
:10048100E4FFFEEF4E6003020590C290D291D2923A
:10049100D2932094030205662095030205662096F7
:1004A1000B7F38120BAF1209F07F082220970B7FC8
:1004B10034120BAF1209F07F0422D290C291D29272
:1004C100D29320940C7F30120BAF1209F07F011FE1
:1004D1002220950302056620960B7F37120BAF127F
:1004E10009F07F072220970B7F33120BAF1209F01F
:1004F1007F0322D290D291C292D29320940B7F3962
:10050100120BAF1209F07F09222095028057209625
:100511000B7F36120BAF1209F07F062220970C7F5A
:1005210032120BAF1209F07F010F22D290D291D279
:1005310092C29320942C0579E579D3940540117FDB
:10054100587E1B1209F4751703757A017E007F012D
:10055100E579C39405500B7F587E1B1209F47E0088
:100561007F0120950B7F23120BAF1209F07F23220D
:1005710020960B7F35120BAF1209F07F05223097C1
:10058100030204847F31120BAF1209F07F01227F35
:010591000069
:010592002246
:060B2000C2A17F197E0056
:100B2600E4FDFCC3ED9FEC9E50070DBD00010C805B
:010B3600F2CC
:010B3700229B
:050BB900D2A0D2A12230
:100B8100D2A0D2A17F327E00120B26C2A0020B2678
:100B3800120B20D2A0120B26D2A1120B26C2A07F24
:040B480032020B2644
:100B4C00120B20C2A0120B26D2A1120B26D2A07F10
:040B5C0032020B2630
:0F0B9100120B20C2A0120B26D2A17F32020B261C
:0F0BA000120B20D2A0120B26D2A17F32020B26FD
:02090C00AB0737
:10090E00E4FAC2A17F327E00120B26A802EB088009
:10091E0002C333D8FC30E704D2A08002C2A0120B6F
:10092E0022D2A17F32120B260ABA08D6C2A1C2A0C9
:0C093E00120B22D2A17F32120B26A2A0C5
:01094A00228A
:10098300E4FBFAC2A1D2A07F327E00120B26D2A1D1
:100993007F19120B26A2A0E433F9C374079AFFF858
:1009A300E9088002C333D8FC42037F327E00120B76
:0709B300260ABA08CEAF03CB
:0109BA00221A
:100A72008E698F6AA90580077FA012090C500512A2
:100A82000B8180F4E569FF12090CAF6A12090CAF01
:070A92000112090C020B4CDC
:0409BB008E7B8F7C24
:1009BF00E4F980077FA012090C5005120B8180F417
:1009CF00E57BFF12090CAF7C12090C120B387FA1CB
:1009DF0012090C120983A907120BA0120B4CAF01BD
:0109EF0022E5
:1007F300020003E493A3F8E493A34003F68001F219
:1008030008DFF48029E493A3F85407240CC8C33306
:10081300C4540F4420C8834004F456800146F6DFD5
:10082300E4800B01020408102040809008C0E47E9D
:10083300019360BCA3FF543F30E509541FFEE493CA
:10084300A360010ECF54C025E060A840B8E493A391
:10085300FAE493A3F8E493A3C8C582C8CAC583CABC
:10086300F0A3C8C582C8CAC583CADFE9DEE780BE74
:01090B0000EB
:10020600BB010689828A83E0225002E722BBFE02F6
:09021600E32289828A83E4932229
:10021F00EF8DF0A4A8F0CF8CF0A428CE8DF0A42EF3
:02022F00FE22AD
:10023100E88FF0A4CC8BF0A42CFCE98EF0A42CFC6C
:100241008AF0EDA42CFCEA8EF0A4CDA8F08BF0A4EA
:100251002DCC3825F0FDE98FF0A42CCD35F0FCEB49
:100261008EF0A4FEA9F0EB8FF0A4CFC5F02ECD390E
:0F027100FEE43CFCEAA42DCE35F0FDE43CFC227B
:1002800075F008758200EF2FFFEE33FECD33CDCC35
:1002900033CCC58233C5829BED9AEC99E5829840B8
:1002A0000CF582EE9BFEED9AFDEC99FC0FD5F0D695
:1002B000E4CEFBE4CDFAE4CCF9A88222B800C1B9BF
:1002C0000059BA002DEC8BF084CFCECDFCE5F0CBFD
:1002D000F97818EF2FFFEE33FEED33FDEC33FCEB36
:1002E00033FB10D703994004EB99FB0FD8E5E4F9F1
:1002F000FA227818EF2FFFEE33FEED33FDEC33FCDE
:10030000C933C910D7059BE99A4007EC9BFCE99AD1
:10031000F90FD8E0E4C9FAE4CCFB2275F010EF2F16
:10032000FFEE33FEED33FDCC33CCC833C810D70716
:100330009BEC9AE899400AED9BFDEC9AFCE899F851
:0E0340000FD5F0DAE4CDFBE4CCFAE4C8F922E4
:10034E00EB9FF5F0EA9E42F0E99D42F0E89C45F005
:01035E00227C
:10087300AC75AD76AE77AF787810EC4D4E4F700413
:100883007CA57DA5C3EC13FCED13FDEE13FEEF1366
:10089300FF5010EC64CCFCED644CFDEE644EFEEFB7
:1008A30064CEFFD8DF8C758D768E778F78EE547F8C
:0D08B300FE228E758F7674A5F577F57822FC
:00000001FF
