:1010DA0064656661756C742070617373776F72648E
:1010EA0000656E7465722070617373776F72640045
:1010FA00616C6572742100200077726F6E672070D0
:10110A00617373776F7264004552524F5200454DB6
:10111A00505459205041535300444F4F5220554E7A
:10112A004C4F434B4544004C4F434B494E47204498
:10113A004F4F5220494E00444F4F52204C4F434B81
:10114A00454400656E746572206F6C64207061732B
:10115A0073770077726F6E672D70617373776F7232
:10116A0064004300656E746572206E65772D706148
:10117A00737377006368616E676564207061737367
:10118A00776F726400656E7465722D3620646967C4
:10119A00697400444F4F522044495341424C4544DC
:1011AA002E2E2E2E00504C5A205245464552204390
:1011BA004F4D504E5900726573657474696E672E8F
:0D11CA002E0073756363657365642E2E003F
:10000E00E4F50AF50BF50CF50DF50EF50FF510F5FB
:10001E0011F512F513F514F515F518F519F51FF57B
:10002E001EF51DF51CF523F522F521F520752FA0E3
:10003E00752E86752D01F52C75333F75324275314F
:10004E000FF530751B011217931216C21217C0E46A
:10005E00FD7F341215797512008F13E4FD7F641243
:10006E001579750E008F0FE4FD7F961215797510B8
:10007E00008F117FFA7E00121641120D848F1AE541
:10008E001B14B4070040030208929000A675F003FB
:10009E00A4C58325F0C583730200BB0202000204CF
:1000AE001B0204CA02069F0207D002081D1214EE9C
:1000BE00EE3395E0FDFCC004C005C006C007C3E5E5
:1000CE0033952FFFE532952EFEE531952DFDE5306A
:1000DE00952CFCEF2401FBE43EFAE43DF9E43CF8F8
:1000EE00D007D006D005D004120CADAC00AD01AED9
:1000FE0002EB252FF52BEE352EF52AED352DF529B4
:10010E00EC352CF528AF13E4FB7D34121661E4FDBB
:10011E007F341215797514008F15E515451460039B
:10012E000201BEE51A646370030201BE7514007508
:10013E001501751200751301120D848F1AAF15E497
:10014E00FB7D34121661AF2BAE2AAD29AC28E4F537
:10015E003812153BE4FF12149D8F278E268D258CA9
:10016E00247BFF7A1079DA7D027C007F017E0012FB
:10017E0015AD85273B85263A852539852438753C6E
:10018E00067D057C007F027E0012138B7FF47E01BC
:10019E00121641AF27AE26AD25AC247538061211C6
:1001AE00D77FF47E011216413099FDC299020131BA
:1001BE00C3E50F9405E50E9400500BC3E5119405AD
:1001CE00E51094004006751B06020088751B02E4BC
:1001DE00F50EF50FF510F511AF0FFB7D64121661DC
:1001EE00AF11E4FB7D9612166112179F751A6E02FF
:1001FE0000887BFF7A1079EB7D027C007F017E0008
:10020E001215AD7F007E007D007C00121415E51ADC
:10021E00646E7003020088E51AC39430406FE51ACD
:10022E00D394395068C3E5199406E5189400505DCF
:10023E00E47F0AFEFDFCAB1FAA1EA91DA81C120C12
:10024E0022A804A905AA06AB07E51A24D0FFE434B8
:10025E00FFFE3395E0FDFCEB2FF51FEA3EF51EE9A0
:10026E003DF51DE83CF51C7F647E00121641851F8E
:10027E003B851E3A851D39851C387D057C007F0225
:10028E007E00120FBD0519E51970020518E51A64F6
:10029E003D60030203D9FFFEFDFCAB1FAA1EA91D84
:1002AE00A81CD3120D4D500302039DE4FF12149DA2
:1002BE008F278E268D258C24AB1FAA1EA91DA81C48
:1002CE00C3120D4D701B751B03C2A0C2A11217776E
:1002DE0012179F7BA37DFF7FF47E011215DE0203B2
:1002EE008E12179FC3E50F9405E50E94004003028E
:1002FE00037D050FE50F7002050EFFE4FB7D641212
:10030E001661E4FD7F64121579750E008F0F7BFF69
:10031E007A1079FA7D057C007F017E001215ADE41E
:10032E00850F3B850E3AF539F538753C017D02FC9B
:10033E007F01FE12126F7BFF7A1179017D017C0025
:10034E007F017E001215AD7BFF7A1179037D017C52
:10035E00007F027E001215AD7BA37DFF7FE87E033A
:10036E001215DE7FD07E0712164112179F8011C321
:10037E00E50F9405E50E94004051751B0612179F6C
:10038E00E4F51FF51EF51DF51CF518F519803C1248
:10039E00179F7BFF7A1179127D067C007F017E000C
:1003AE001215AD7BFF7A1179187D037C007F027EDA
:1003BE00001215AD7FE87E0312164112179FE4F569
:1003CE0018F519F51FF51EF51DF51CE51AB44E1896
:1003DE00751B04750C00750D0112179FE4F518F5C9
:1003EE0019F50C750D01801AE51A645260030200AE
:1003FE0088751B0412179F750A00750B01E4F5181A
:10040E00F519F51FF51EF51DF51C0200887BFF7A08
:10041E001179237D017C007F017E001215AD7F00D6
:10042E007E007D347C431214157FE87E0312164144
:10043E0012179F7BFF7A1179317D017C007F017E3F
:10044E00001215AD751600751705E485173B851658
:10045E003AF539F538753C017D08FC7F02FE121223
:10046E006F7FE87E03121641E517151770021516F9
:10047E00D3E5179400E516940050CF7F2C7E011221
:10048E00164112179F7BA37DFF7FE87E031215DEB8
:10049E007BFF7A1179417D037C007F017E0012156E
:1004AE00AD7F007E007D007C001214157FF47E016E
:1004BE0012164112179F751B020200887BFF7A11DC
:1004CE00794D7D027C007F017E001215ADE51A6428
:1004DE006E7003020088E51AC39430406FE51AD39C
:1004EE0094395068C3E5199406E5189400505DE4FC
:1004FE007F0AFEFDFCAB1FAA1EA91DA81C120C2212
:10050E00A804A905AA06AB07E51A24D0FFE434FF18
:10051E00FE3395E0FDFCEB2FF51FEA3EF51EE93D9F
:10052E00F51DE83CF51C7F647E00121641851F3BCD
:10053E00851E3A851D39851C387D057C007F027E1F
:10054E0000120FBD0519E51970020518E51A643D74
:10055E006003020680FF12149D8F278E268D258C38
:10056E0024AB1FAA1EA91DA81CC3120D4D7020E599
:10057E000D6401450C7018751B05F50CF50D121761
:10058E009F7BA37DFF7FE87E031215DE020673AF0D
:10059E0027AE26AD25AC24AB1FAA1EA91DA81CC3D1
:1005AE00120D4D7015E50B6401450A700D751B0794
:1005BE00F50AF50B12179F02067312179FD3E5115A
:1005CE009405E510940040030206620511E51170D2
:1005DE00020510FFE4FB7D96121661E4FD7F961274
:1005EE0015797510008F117BFF7A11795D7D017C75
:1005FE00007F017E001215AD7BFF7A11796C7D05AF
:10060E007C007F027E001215ADE485113B85103A09
:10061E00F539F538753C017D06FC7F02FE12126F2E
:10062E00E4F508F5097BA37DFF7FF47E011215DE4C
:10063E007FFA7E001216410509E50970020508C30E
:10064E009403E508940040DD7FF47E0112164112FA
:10065E00179F8011D3E5119405E510940040137592
:10066E001B0612179FE4F51FF51EF51DF51CF51858
:10067E00F519E51A64636003020088751B021217F0
:10068E009FE4F51FF51EF51DF51CF518F519020072
:10069E00887BFF7A11796E7D027C007F017E0012CD
:1006AE0015ADE51A646E7003020088E51AC3943026
:1006BE00406FE51AD394395068C3E5199406E518CE
:1006CE009400505DE47F0AFEFDFCAB23AA22A92113
:1006DE00A820120C22A804A905AA06AB07E51A2425
:1006EE00D0FFE434FFFE3395E0FDFCEB2FF523EA5B
:1006FE003EF522E93DF521E83CF5207F647E0012AF
:10070E00164185233B85223A8521398520387D0582
:10071E007C007F027E00120FBD0519E519700205DF
:10072E0018E51A643D600302008885233B85223A52
:10073E00852139852038753C067D05FC7F02FE1229
:10074E00126F7FD07E07121641E5196406451870A8
:10075E00387FF47E0112164112179F7BFF7A1179B2
:10076E007E7D017C007F017E001215ADAF23AE228F
:10077E00AD21AC20E4F53812153B7FD07E07121662
:10078E0041751B0212179F8029C3E5199406E518BF
:10079E009400400302008812179F7BFF7A11798F15
:1007AE007D017C007F017E001215AD7FD07E071289
:1007BE001641E4F518F519F523F522F521F5200279
:1007CE0000887BFF7A11799D7D027C007F017E007F
:1007DE001215AD7BFF7A1179AF7D017C007F027E11
:1007EE00001215ADE51A645260127B037DF07F0591
:1007FE007E001215DE120D848F1A80E8E51A6452FF
:10080E006003020088751B04F50A750B01806F7B6F
:10081E00FF7A1179C07D037C007F017E001215AD39
:10082E001216A47FB87E0B121641751400751501B1
:10083E00E4F50EF50FF510F511AF15FB7D3212161E
:10084E0061AF0FE4FB7D64121661AF11E4FB7D9680
:10085E001216617FF47E011216417BFF7A1179CC5C
:10086E007D037C007F017E001215AD7FDC7E0512BC
:10087E001641751B05E4F50AF50BF50CF50D12176F
:0A088E009F020088751B010200881C
:101756007589018D8A8F8CD28C308DFDC28CC28D9D
:011766002260
:0815DE008F828E83AE03AC0581
:1015E600E4FBFAC3EB9582E5836480F8EA648098AD
:1015F6005015D295AF04AD06121756C2951217565E
:071606000BBB00010A80DCB0
:01160D0022BA
:0C179300758920758DFD759850D28E224E
:0416DE0002640000A2
:100D8400C297D296D295D2942090187BA37DFF7FF0
:100D9400F47E011215DE7F647E001216413090FD50
:100DA4007F2F222091187BA37DFF7FF47E011215F3
:100DB400DE7F647E001216413091FD7F392220923D
:100DC400187BA37DFF7FF47E011215DE7F647E0015
:100DD4001216413092FD7F38222093187BA37DFFA9
:100DE4007FF47E011215DE7F647E0012164130937B
:100DF400FD7F3722D297C296D295D2942090187B49
:100E0400A37DFF7FF47E011215DE7F647E0012163F
:100E1400413090FD7F78222091187BA37DFF7FF4E1
:100E24007E011215DE7F647E001216413091FD7F33
:100E340036222092187BA37DFF7FF47E011215DEFB
:100E44007F647E001216413092FD7F352220931874
:100E54007BA37DFF7FF47E011215DE7F647E00128A
:100E640016413093FD7F3422D297D296C295D29404
:100E74002090187BA37DFF7FF47E011215DE7F6432
:100E84007E001216413090FD7F2D222091187BA305
:100E94007DFF7FF47E011215DE7F647E0012164111
:100EA4003091FD7F33222092187BA37DFF7FF47E57
:100EB400011215DE7F647E001216413092FD7F32EE
:100EC400222093187BA37DFF7FF47E011215DE7F21
:100ED400647E001216413093FD7F3122D297D29660
:100EE400D295C2942090187BA37DFF7FF47E0112DB
:100EF40015DE7F647E001216413090FD7F2B222088
:100F040092187BA37DFF7FF47E011215DE7F647E41
:100F1400001216413092FD7F302220914B7BA37D3D
:100F2400FF7FF47E011215DE7F647E00800F209126
:100F3400110565E565700205647F907E0112164116
:100F440080ECC3E565940AE56494004008E4F56424
:100F5400F5657F5222C3E565940AE5649400500860
:100F6400E4F564F5657F3D2220934B7BA37DFF7FF1
:100F7400F47E011215DE7F647E00800F209311053C
:100F840065E565700205647F2C7E0112164180ECD4
:100F9400C3E565940AE56494004008E4F564F565E6
:100FA4007F4E22C3E565940AE56494005008E4F595
:090FB40064F5657F63227F6E2263
:0F177700758901758CB7758AFDD28C75A8822291
:03000B000216F9E1
:1016F900C0E0B2A030A009E54CF58C854D8A800781
:0A170900E552F58C85538AD0E032DA
:081415008F378E368D358C34C3
:10141D00E4FFFE7D347C42AB37AA36A935A83412E1
:10142D00089FE4FBFA79347843120A99E4FBFA79C0
:10143D002078411209908F518E508D4F8C4E7538FA
:10144D0048753902AC38AD39E4120B3BE4FBFA793F
:10145D00C87842120A99AB51AA50A94FA84E120949
:10146D0090120B748E4C8F4DC3E539954DF553E5A8
:10147D0038954CF552C374FF954DF54D74FF954C51
:0F148D00F54CC374FF9553F55374FF9552F55208
:01149C00222D
:1016E20002580000025A0000025400000256000094
:07163A001217677F0A7E0012
:10164100E4FDFCC3ED9FEC9E5015E4FBFA0BBB00DF
:0F165100010AEB64704A70F50DBD00010C80E4D6
:011660002267
:101767008F80C2A6C2A5D2A712163DC2A7021641F4
:04174200EF2430FF61
:101746008F80D2A6C2A5D2A712163DC2A702164105
:0C179F007F011217677F0A7E00021641CE
:1016C2007F3812163A12179F12163D7F0612163AEB
:0C16D2007F0C1217677F0A7E0002164191
:10160E008E4A8F4B8D828C83E54B6401454A700860
:10161E00AF82EF144480800FE54B6402454A700B95
:0C162E00AF82EF243F44C0FF12163A22A6
:0615AD008B348A358936FB
:1015B300E4F537F53812160EAB34AA35A93685385B
:1015C30082853783120BF5FF601012174612163D02
:0A15D3000538E53870E2053780DEC8
:0115DD0022EB
:10126F00E4754001F53FF53EF53D12160E75580039
:10127F00755901C3E559953CE55894005023AF408B
:10128F00AE3FAD3EAC3DE47B0AFAF9F8120C228F6B
:10129F00408E3F8D3E8C3D0559E55970D6055880DF
:1012AF00D2E4F541E541C3953C5044AB40AA3FA978
:1012BF003EA83DAF3BAE3AAD39AC38120CADE47B36
:1012CF000AFAF9F8120CADAE02AF038E548F551215
:1012DF001742AF40AE3FAD3EAC3DE47B0AFAF9F8A2
:0F12EF00120CAD8F408E3F8D3E8C3D054180B57A
:0112FE0022CD
:100FBD00E4F53FF53EF53DF53C853B43853A4285ED
:100FCD003941853840754701F546F545F54412160A
:100FDD000EE4FFFEFDFCAB3BAA3AA939A838C312BB
:100FED000D4D700B753F01F53EF53DF53C8043E42D
:100FFD00FFFEFDFCAB43AA42A941A840C3120D4D13
:10100D006030E53F2401F53FE4353EF53EE4353DE6
:10101D00F53DE4353CF53CAF43AE42AD41AC40E46B
:10102D007B0AFAF9F8120CAD8F438E428D418C403C
:10103D0080BD755800755901AE58AF59E4FCFDAB34
:10104D003FAA3EA93DA83CD3120D4D4023AF47AE5C
:10105D0046AD45AC44E47B0AFAF9F8120C228F47F1
:10106D008E468D458C440559E5597002055880C84A
:10107D00E4F548AF48E4FCFDFEAB3FAA3EA93DA810
:10108D003CD3120D4D4045AB47AA46A945A844AFE8
:10109D003BAE3AAD39AC38120CADE47B0AFAF9F837
:1010AD00120CADAF038F49E5492430FF121746AF3F
:1010BD0047AE46AD45AC44E47B0AFAF9F8120CADE7
:0C10CD008F478E468D458C44054880A757
:0110D90022F4
:10138B00E4754001F53FF53EF53DF542F543121688
:10139B000E900001C3E582953CE5839400501CAF91
:1013AB0040AE3FAD3EAC3DE47B0AFAF9F8120C229D
:1013BB008F408E3F8D3E8C3DA380D9E4F541E541B6
:1013CB00C3953C5044AB40AA3FA93EA83DAF3BAEB2
:1013DB003AAD39AC38120CADE47B0AFAF9F8120CC1
:1013EB00ADAE02AF038E428F43121742AF40AE3FFA
:1013FB00AD3EAC3DE47B0AFAF9F8120CAD8F408E92
:09140B003F8D3E8C3D054180B58A
:0114140022B5
:0811D7008F378E368D358C3404
:1011DF00E4753C01F53BF53AF539F53EF53F9000E6
:1011EF0001C3E5829538E5839400501CAF3CAE3BBC
:1011FF00AD3AAC39E47B0AFAF9F8120C228F3C8E27
:10120F003B8D3A8C39A380D9E4F53DE53DC3953844
:10121F00504DAB3CAA3BA93AA839AF37AE36AD35E6
:10122F00AC34120CADE47B0AFAF9F8120CADAE0235
:10123F00AF038E3E8F3FEF2430F599AF3CAE3BAD01
:10124F003AAC39E47B0AFAF9F8120CAD8F3C8E3BBD
:0F125F008D3A8C397F647E00121641053D80ACBC
:01126E00225D
:0616F200045C0000000092
:0F171300C2A07F017E00121722D2A17F017E00AB
:0B172200EF1FAC0670011E4C70F62299
:0517C000D2A0D2A1221D
:0D178600C2A1121715C2A012171EC2A12287
:0B17AB00C2A112171E121713D2A022B9
:08000300121713C2A1D2A022C2
:0A17B600D2A0121715C2A1D2A02282
:10172D00E4FEEF3392A0D2A1C2A1EF25E0FF0EBEE1
:05173D0008F0020003AA
:10168300E4FDFB12171ED2A1A2A0E4334205EBC373
:1016930094075004ED25E0FDC2A10BBB08E5AF059F
:0116A3002224
:10166100AA07121786EB25E044A0FF12172DAF053C
:1016710012172DAF0212172D1217AB7F057E000234
:02168100164110
:02157900AB07BE
:10157B00121786ED25E044A0FF12172DAF031217AB
:10158B002D121786ED25E044A1FF12172D1216839D
:10159B00AD071217B61217AB7F0A7E00121722AFD8
:0115AB00053A
:0115AC00221C
:08153B008F378E368D358C349C
:05154300E4F539F53A62
:10154800AB3AEB75F008A4F9AF37AE36AD35AC342D
:0F155800F8120D5E8F3BE5382BFDE4FB12166198
:10156700053AE53A70020539C39404E53994004019
:01157700D0A3
:011578002250
:02149D00AA079C
:0D149F00E4F537F536F535F534F582F583C3
:1014AC00AF82EF2AFFE4FD1215798F38E4FCFDFEC4
:1014BC00AB82EB75F008A4F9F8120D71E5374FF516
:1014CC0037E5364EF536E5354DF535E5344CF53426
:1014DC00A3E5826404458370C7AF37AE36AD35AC37
:0114EC0034CB
:0114ED0022DC
:1016A400E4F534E4FBAD34FF1216617B01AD34E4A0
:0D16B400FF1216610534E534C394FF40E6D3
:0116C1002206
:10089800020BE0E86480F8E933E83360110460F0A3
:1008A800ED33EC337009E8FCE9FDEAFEEBFF2204C6
:1008B80060DED3EB9FEA9EE99DE8C2E78CF0C2F7C1
:1008C80095F0400CE8CCF8E9CDF9EACEFAEBCFFB8D
:1008D800120BAB85D0F05804700320D5B3E8047030
:1008E800075002B2D5020BEA92D5EC0460F7E4CCCB
:1008F800C0E0C398F8603B94186008400DD0E0FB56
:10090800020BC2E4FBFAC9FC8028E830E406E4C91B
:10091800FBE4CAFCE830E305E4C9CACBFCE85407A9
:100928006010F8C3E913F9EA13FAEB13FBEC13FCB4
:10093800D8F130F52FC3E49CFCEF9BFFEE9AFEED57
:1009480099FDD0E0FBEF4E4D4C701222DB03020BF9
:10095800E7EC2CFCEF33FFEE33FEED33FDED30E733
:10096800EB020BC2EF2BFFEE3AFEED39FDD0E0FBB8
:1009780050130BBB0003020BEAED13FDEE13FEEF61
:0809880013FFEC13FC020BC28B
:10099000EC4D6011E8497017ED33EC3304600DE461
:1009A000FCFFFEFD22E933E8330470F8020BE0128D
:1009B0000BAB58046009E4CC24815006285009028E
:1009C0000BEA284003020BE7C0E0EB4A7044B98011
:1009D00006D0E0FB020BD6EF4E701CBD8008EBFF8B
:1009E000EAFEE9FD80EBE98DF0A4FEE5F0020A796C
:1009F000E9CDF9EAFEEBFFEF89F0A4FCE5F0CE8942
:100A0000F0A42EFFE435F0CD89F0A42DFEE435F0FE
:100A10008067EF4E7005BD80D780C3EF8BF0A4AC2C
:100A2000F0EE8BF0A42CFCE435F0F8EF8AF0A42C67
:100A3000E5F038FCE433CB8DF0A42CFCE5F03BF87A
:100A4000EE8AF0A42CFCE5F038F8E433CF89F0A46A
:100A50002CFCE5F038CF3400CE89F0A42FFFE5F070
:100A60003EFEE433C98DF0A42EFEE5F039CD8AF0C8
:100A7000A42FFFE5F03EFEE43DFD33D0E0FB500740
:100A80000BBB000F020BEAEC2CFCEF33FFEE33FE46
:060A9000ED33FD020BC274
:100A9600020BEAEC5D046005E859047003020BE002
:100AA600120BAB580460F6EC4860F2EC7004FDFEE5
:100AB600FF22C860DB2481C85009C3986002500633
:100AC600020BE79850CAF582E9294B4A7005AB82BA
:100AD600020BD675F0007C1A7880C3EF9BEE9AED78
:100AE60099400DC3EF9BFFEE9AFEED99FDE842F0AB
:100AF600DC23ACF0D0E0FFD0E0FED0E0FDAB8220FE
:100B0600E7101BEB60BAEC2CFCEF33FFEE33FEED87
:100B160033FD020BC2E803F830E705C0F075F000BC
:100B2600EF2FFFEE33FEED33FD40B830E7C280AA6B
:100B360075F020800E75F010800575F0087D007E3A
:100B4600007F003392D530D503120D3FEC334010B1
:100B5600EF33FFEE33FEED33FDEC33FCD5F0ED2243
:0E0B6600E5F0247EA2D513CC92E7CDCEFF227F
:100B7400EDD2E7CD33EC3392D524814006E4FFFE79
:100B8400FDFC22FCE4CFCECDCC24E0501174FF80D8
:100B9400EDC3CC13CCCD13CDCE13CECF13CF047075
:070BA400F030D5DE020D3F29
:100BAB00E9D2E7C933E833F892D5EDD2E7CD33EC90
:070BBB0033FC5002B2D52209
:100BC200EC30E7100FBF000C0EBE00080DBD000494
:100BD2000BEB6014A2D5EB13FCED92E7FD2274FF40
:100BE200FCFDFEFF22E480F8A2D574FF13FC7D8099
:030BF200E480EFAD
:030000000212FFEA
:0C12FF00787FE4F6D8FD75816502134687
:100BF500BB010CE58229F582E5833AF583E02250B5
:100C050006E92582F8E622BBFE06E92582F8E222FE
:0D0C1500E58229F582E5833AF583E4932218
:100C2200E88FF0A4CC8BF0A42CFCE98EF0A42CFC71
:100C32008AF0EDA42CFCEA8EF0A4CDA8F08BF0A4EF
:100C42002DCC3825F0FDE98FF0A42CCD35F0FCEB4E
:100C52008EF0A4FEA9F0EB8FF0A4CFC5F02ECD3913
:0F0C6200FEE43CFCEAA42DCE35F0FDE43CFC2280
:100C710075F008758200EF2FFFEE33FECD33CDCC3A
:100C810033CCC58233C5829BED9AEC99E5829840BD
:100C91000CF582EE9BFEED9AFDEC99FC0FD5F0D69A
:100CA100E4CEFBE4CDFAE4CCF9A88222B800C1B9C4
:100CB1000059BA002DEC8BF084CFCECDFCE5F0CB02
:100CC100F97818EF2FFFEE33FEED33FDEC33FCEB3B
:100CD10033FB10D703994004EB99FB0FD8E5E4F9F6
:100CE100FA227818EF2FFFEE33FEED33FDEC33FCE3
:100CF100C933C910D7059BE99A4007EC9BFCE99AD7
:100D0100F90FD8E0E4C9FAE4CCFB2275F010EF2F1B
:100D1100FFEE33FEED33FDCC33CCC833C810D7071B
:100D21009BEC9AE899400AED9BFDEC9AFCE899F856
:0E0D31000FD5F0DAE4CDFBE4CCFAE4C8F922E9
:0E0D3F00C3E49FFFE49EFEE49DFDE49CFC22C5
:100D4D00EB9FF5F0EA9E42F0E99D42F0E89C45F0FC
:010D5D002273
:100D5E00E8600FECC313FCED13FDEE13FEEF13FF73
:030D6E00D8F12297
:100D7100E8600FEFC333FFEE33FEED33FDEC33FCE0
:030D8100D8F12284
:1014EE00AC60AD61AE62AF637810EC4D4E4F7004E0
:1014FE007CA57DA5C3EC13FCED13FDEE13FEEF13DF
:10150E00FF5010EC64CCFCED644CFDEE644EFEEF2F
:10151E0064CEFFD8DF8C608D618E628F63EE547F58
:0D152E00FE228E608F6174A5F562F56322C8
:10130B0002000EE493A3F8E493A34003F68001F2EA
:10131B0008DFF48029E493A3F85407240CC8C333E3
:10132B00C4540F4420C8834004F456800146F6DFB2
:10133B00E4800B01020408102040809016DEE47E4E
:10134B00019360BCA3FF543F30E509541FFEE493A7
:10135B00A360010ECF54C025E060A840B8E493A36E
:10136B00FAE493A3F8E493A3C8C582C8CAC583CA99
:10137B00F0A3C8C582C8CAC583CADFE9DEE780BE51
:0116F80000F1
:00000001FF
