:100B4600E4FDFCD3ED9FEC9E5015E4FBFA0BBB00D5
:0F0B5600010AEB64724A70F50DBD00010C80E4DA
:010B6500226D
:0D0C2F00D2A00000D2A10000C2A00000224F
:090C4600C2A1D2A0D2A1C2A022D9
:090C4F00C2A1C2A0D2A1D2A022D0
:0F0BD6007E001209ED120BE5AF037E001209ED50
:0A0BE500C2A1D2A0D2A120A0FD22DF
:07000300C2A1D2A0D2A1228C
:1009ED00AD07AC06E4F512C2A17E007480A8120812
:1009FD008006CEA2E713CE13D8F8FFEE5CFEEF5DB6
:100A0D004E6003D38001C392A0D2A10512E512B4AA
:030A1D0008D522D7
:100A9300E4F514F513C2A1D2A130A00FAF13A80738
:100AA3007480088002C313D8FC42140513E513B401
:050AB30008E3AF14226E
:100B8600AB05AA07120C2F7FA0120BE0AF02120BC7
:0B0B9600D6120C4F7F0A7E00020B46B7
:020BA100AB07A0
:100BA300120C2F7FA0120BD6120C467FA1120BE062
:090BB300120A93120003020C4F18
:030BEF00011500ED
:0409B6007F017E003F
:0409BA008E098F0A09
:1009BE00750B01D3E50B950AE495095021E4FFC2AE
:1009CE0095E4FE0EBE32FCD295E4FE0EBE32FC0F56
:0E09DE00BFFAEC7FF47E01120B01050B80D5F1
:0109EC0022E8
:1006AF00C297D296D295D2942093107F647E001277
:1006BF000B012093061209B67F37222092107F6418
:1006CF007E00120B012092061209B67F382220916C
:1006DF00107F647E00120B012091061209B67F393C
:1006EF00222090107F647E00120B012090061209C9
:1006FF00B67F2F22D297C296D295D2942093107F95
:10070F00647E00120B012093061209B67F3422205B
:10071F0092107F647E00120B012092061209B67FA1
:10072F0035222091107F647E00120B01209106125A
:10073F0009B67F36222090107F647E00120B0120B5
:10074F0090061209B67F2A22D297D296C295D294DA
:10075F002093107F647E00120B012093061209B6BE
:10076F007F31222092107F647E00120B01209206AF
:10077F001209B67F32222091107F647E00120B0186
:10078F002091061209B67F33222090107F647E00DD
:10079F00120B012090061209B67F2D22D297D29606
:1007AF00D295C29420932A7F647E00120B0120936E
:1007BF0013E515C3940A500C1209B605157FA01244
:1007CF000A4780EAE515C3940A40037F63227F43FB
:1007DF00222092107F647E00120B012092061209D4
:1007EF00B67F30222091107F647E00120B01209182
:1007FF00061209B67F3D222090107F647E00120BF7
:0F080F00012090061209B67F2B22D2940206AF69
:100B0100E4FDFCC3ED9FEC9E5018758CFC758A6466
:100B1100C28DD28C308DFDC28DC28C0DBD00010CF9
:020B210080E171
:010B230022AF
:100A4700E4FDFCEFFBC3ED9BEC94005018758D4B58
:100A5700758BFDC28FD28E308FFDC28FC28E0DBDBA
:050A670000010C80DE1F
:010A6C002267
:060B2400C2A5EB54F0FF36
:100B2A00EFA2E49284A2E59285A2E69286339287A6
:0C0B3A00D2A77F047E00120B01C2A7228C
:0F0C0200AB07C2A6120B24EBC454F0FF020B2A5F
:0F0C1100AB07D2A6120B24EBC454F0FF020B2A40
:100B66007F647E00120B017F02120C027F28120C9A
:100B7600027F0C120C027F01120C027F80020C0213
:040AB8007E007C0040
:100ABC008E0E8F0FE50F6401450E7005ED248080BE
:100ACC000BE50F6402450E7007ED24C0FF120C02FB
:010ADC0022F7
:050C58007F01020C0207
:080A20008E0E8F0F8C108D115A
:100A28007F017E00E4FBEBC39511E5106480F87448
:0E0A38008098500AAC0EAD0F1202A00B80E8A1
:010A4600228D
:040979008A0B8B0C4E
:10097D00120AB8AA0DEAD39400402DEA24FFFDE433
:10098D0034FFFC7F0A7E00120A20AC0BAD0CCFCDDC
:10099D00CFCECCCE1202B27C007D0A1202B2ED2473
:0809AD0030FF120C111A80CD7D
:0109B500221F
:0A0C3C00AA03120AB8AF02020C115D
:060A6D008B098A0A890BC7
:100A7300120AB8E4F50CAB09AA0AA90B850C827516
:0F0A83008300120273FF6007120C11050C80E74D
:010A92002241
:1009180047656E65726174652050696E004F6C643E
:100928002050617373776F726400446F6F72205543
:100938006E6C6F636B656400446F6F72204C6F63FD
:100948006B65640053797374656D204469736162E3
:100958006C65640057726F6E672050617373776FB0
:10096800726400456E746572204F6C642050696E25
:01097800007E
:0F0BF20001460001470001210A014E00013700B2
:0F0C2000758901758CB7758AFD75A882D28C22F3
:03000B00020BBC29
:100BBC00C0E0B2A030A009E544F58C85458A8007D9
:0A0BCC00E52CF58C852D8AD0E0326F
:1008AA00E4FBFA79347843120117E4FBFA792078E9
:1008BA004112000E8F0C8E0B8D0A8C09750D48752E
:1008CA000E02AC0DAD0EE41201B9E4FBFA79C87858
:1008DA0042120117AB0CAA0BA90AA80912000E12A0
:1008EA0001F28E448F45C3E50E9545F52DE50D952C
:1008FA0044F52CC374FF9545F54574FF9544F544BA
:0D090A00C374FF952DF52D74FF952CF52C71
:0109170022BD
:100ADD001206AF74482547F8A60774482547F8E66F
:100AED00FDAF47120B8674482547F8E6FBAD477FEF
:040AFD0002020C3CA9
:10036400120B66120C20020653E50814604B14703D
:100374000302053914700302058F240370EB7FAA6E
:10038400120BA18F22E52264AA702B7BFF7A0979D4
:1003940018FD7F01120A6DE547C394065007120A3F
:1003A400DD054780C47DAA7FCF120B867508017FC7
:1003B400B8120A4780B3020568120C587FFE120B6C
:1003C400A18F2BE52B64067003020578E4F546AF94
:1003D40046120BA174382546F8A60774382546F84A
:1003E400E6FBAD467F02120C3C0546E546C3940687
:1003F40040DDAF3DE4FCFDFE7BA07A867901F81276
:100404000307E53CC454F02FFFE53B75F0E8A42F47
:10041400FFE53A75F064A42FFFE53975F00AA42FBF
:100424002538F5237BFF7A097925E4FD7F01120A3B
:100434006DE4F5461206AF8F2FE52FB463057508FA
:1004440003801E743E2546F8A62F743E2546F8E622
:10045400FBAD467F02120C3C0546E546C3940640BC
:10046400D37FD07E07120B01AF43E4FCFDFE7BA0DB
:100474007A867901F8120307E542C454F02FFFE5A8
:100484004175F0E8A42FFFE54075F064A42FFFE563
:100494003F75F00AA42F253EF530E5086403700388
:1004A40002036DE52365306003020533120C587BAB
:1004B400FF7A097932E4FD7F01120A6D7F057E001F
:1004C4001209BA7FE87E03120B017F007E007D00D3
:1004D4007C001208AA7FF47E01120B01E4F5461594
:1004E40021E521FB7A00750D017D067F0212097951
:1004F4007FA0120A470546E546C3940A40E17F05FA
:100504007E001209BA7BFF7A097940E4FD7F01126B
:100514000A6D7F007E007D347C431208AA7FD07E62
:1005240007120B01120C58E4F54E75210A8035753B
:10053400080202036DE54EC39405502E120C587B3D
:10054400FF7A09795CE4FD7F01120A6DE54EFB7ABE
:1005540000750D017D057F021209797F0A7E001264
:1005640009BA054E75080102036D7D067FFA120B68
:1005740086120C587BFF7A09794CE4FD7F01120A3C
:100584006D7F887E131209BA02036D120C587BFF2B
:100594007A09796BE4FD7F01120A6DE4F546AF46F2
:1005A400120BA174312546F8A6070546E546C39407
:1005B4000640EBAF36E4FCFDFE7BA07A867901F8B9
:1005C400120307E535C454F02FFFE53475F0E8A4B1
:1005D4002FFFE53375F064A42FFFE53275F00AA40C
:1005E4002F2531F52EE4F5461206AF74252546F87D
:1005F400A60774252546F8E6FBAD467F02120C3C9F
:100604000546E546C3940640DF7FD07E07120B0102
:10061400AF2AE4FCFDFE7BA07A867901F812030779
:10062400E529C454F02FFFE52875F0E8A42FFFE571
:100634002775F064A42FFFE52675F00AA42F25255D
:10064400F524B52E107DFF7FD4120B86120C58E4CE
:10065400F50802036DE537C39403502E120C587B42
:10066400FF7A09795CE4FD7F01120A6DE537FB7AB4
:1006740000750D017D057F021209797F0A7E001243
:1006840009BA053775080302036D7D067FFA120B5C
:1006940086120C587BFF7A09794CE4FD7F01120A1B
:0B06A4006D7F887E131209BA02036DFF
:10000E00EC4D6011E8497017ED33EC3304600DE4EC
:10001E00FCFFFEFD22E933E8330470F802025E12A3
:10002E00022958046009E4CC2481500628500902A4
:10003E000268284003020265C0E0EB4A7044B980B2
:10004E0006D0E0FB020254EF4E701CBD8008EBFFA1
:10005E00EAFEE9FD80EBE98DF0A4FEE5F00200F783
:10006E00E9CDF9EAFEEBFFEF89F0A4FCE5F0CE89CD
:10007E00F0A42EFFE435F0CD89F0A42DFEE435F08A
:10008E008067EF4E7005BD80D780C3EF8BF0A4ACB8
:10009E00F0EE8BF0A42CFCE435F0F8EF8AF0A42CF3
:1000AE00E5F038FCE433CB8DF0A42CFCE5F03BF806
:1000BE00EE8AF0A42CFCE5F038F8E433CF89F0A4F6
:1000CE002CFCE5F038CF3400CE89F0A42FFFE5F0FC
:1000DE003EFEE433C98DF0A42EFEE5F039CD8AF054
:1000EE00A42FFFE5F03EFEE43DFD33D0E0FB5007CC
:1000FE000BBB000F020268EC2CFCEF33FFEE33FE5D
:06010E00ED33FD0202408A
:10011400020268EC5D046005E85904700302025EA3
:10012400120229580460F6EC4860F2EC7004FDFEFB
:10013400FF22C860DB2481C85009C39860025006BE
:100144000202659850CAF582E9294B4A7005AB82D0
:1001540002025475F0007C1A7880C3EF9BEE9AED8E
:1001640099400DC3EF9BFFEE9AFEED99FDE842F036
:10017400DC23ACF0D0E0FFD0E0FED0E0FDAB822089
:10018400E7101BEB60BAEC2CFCEF33FFEE33FEED13
:1001940033FD020240E803F830E705C0F075F000D3
:1001A400EF2FFFEE33FEED33FD40B830E7C280AAF7
:1001B40075F020800E75F010800575F0087D007EC6
:1001C400007F003392D530D503120356EC33401030
:1001D400EF33FFEE33FEED33FDEC33FCD5F0ED22CF
:0E01E400E5F0247EA2D513CC92E7CDCEFF220B
:1001F200EDD2E7CD33EC3392D524814006E4FFFE05
:10020200FDFC22FCE4CFCECDCC24E0501174FF8063
:10021200EDC3CC13CCCD13CDCE13CECF13CF047000
:07022200F030D5DE020356A7
:10022900E9D2E7C933E833F892D5EDD2E7CD33EC1B
:0702390033FC5002B2D52294
:10024000EC30E7100FBF000C0EBE00080DBD00041F
:100250000BEB6014A2D5EB13FCED92E7FD2274FFCB
:10026000FCFDFEFF22E480F8A2D574FF13FC7D8024
:03027000E480EF38
:0300000002081ED5
:0C081E00787FE4F6D8FD75814E02086575
:10027300BB010CE58229F582E5833AF583E0225040
:1002830006E92582F8E622BBFE06E92582F8E2228A
:0D029300E58229F582E5833AF583E49322A4
:1002A000EF8DF0A4A8F0CF8CF0A428CE8DF0A42E72
:0202B000FE222C
:1002B200BC000BBE0029EF8DF084FFADF022E4CC30
:1002C200F875F008EF2FFFEE33FEEC33FCEE9DECF9
:1002D200984005FCEE9DFE0FD5F0E9E4CEFD22ED3F
:1002E200F8F5F0EE8420D21CFEADF075F008EF2F89
:1002F200FFED33FD4007985006D5F0F222C398FD7A
:050302000FD5F0EA2216
:10030700E88FF0A4CC8BF0A42CFCE98EF0A42CFC95
:100317008AF0EDA42CFCEA8EF0A4CDA8F08BF0A413
:100327002DCC3825F0FDE98FF0A42CCD35F0FCEB72
:100337008EF0A4FEA9F0EB8FF0A4CFC5F02ECD3937
:0F034700FEE43CFCEAA42DCE35F0FDE43CFC22A4
:0E035600C3E49FFFE49EFEE49DFDE49CFC22B8
:10082A00020364E493A3F8E493A34003F68001F27D
:10083A0008DFF48029E493A3F85407240CC8C333CF
:10084A00C4540F4420C8834004F456800146F6DF9E
:10085A00E4800B0102040810204080900BEFE47E34
:10086A00019360BCA3FF543F30E509541FFEE49393
:10087A00A360010ECF54C025E060A840B8E493A35A
:10088A00FAE493A3F8E493A3C8C582C8CAC583CA85
:10089A00F0A3C8C582C8CAC583CADFE9DEE780BE3D
:010C010000F2
:00000001FF
