:1006560064656661756C742070617373776F72641C
:010666000093
:0B01E00090000CEEF0A3EFF0A3EDF098
:1001EB00A3E4F0A304F0E4900012F0A3F07B01FA77
:1001FB0090000EE0FFC3EB9FEA9400501CA3E0FEBF
:10020B00A3E0FF7C007D0A12003090000FEEF0A3FC
:10021B00EFF00BBB00010A80D7E4900011F09000C7
:10022B000EE0FF900011E0C39F504C90000FE0FADE
:10023B00A3E0FB90000CE0FEA3E0FFAD03AC0212C9
:10024B0000427C007D0A120042900012ECF0A3EDFC
:10025B00F02430F5997D0A7C00AF03AE0212004208
:10026B0090000FEEF0A3EFF07F647E0012048E90EF
:07027B000011E004F080A770
:010282002259
:100106009000087486F0A374A0F0A37442F0A37460
:100116003FF07FE57E141205121204D4900008E029
:10012600FCA3E0FDC390000BE09DFD90000AE09C5F
:10013600CD2401CD3400FC120042900009E02DFFD1
:10014600900008E03CFEE4FCFD9000041200BD7542
:100156008920758DFD759850D28E1205EE1206BD5A
:10016600900004E0FCA3E0FDA3E0FEA3E0FFE49022
:100176000010F012042EE4FF120283900000120019
:10018600BD7D017C007F017E001205CE7BFF7A06D5
:1001960079561205577D057C007F027E001205CE3A
:1001A600900000A3A3E0FEA3E0FF7D061203137FE9
:1001B600E87E0312048E900000A3A3E0FEA3E0FFF6
:1001C6007D061201E07FD07E0712048E3099FDC2B3
:0A01D600997FE87E0312048E80A7D3
:10060A00420018000042001A000042001400004292
:04061A0000160000C6
:070487001206677F0A7E00E8
:10048E00E4900018F0A3F0C3900019E09F900018BC
:10049E00E09E5031E490001AF0A3F090001BE004AF
:1004AE00F0700690001AE004F090001AE07004A3B9
:1004BE00E0647070E6900019E004F070CA900018C5
:0604CE00E004F080C222F0
:100667008F80C2A6C2A5D2A712048AC2A702048E8F
:100677008F80D2A6C2A5D2A712048AC2A702048E6F
:0C0694007F011206677F0A7E0002048EC0
:1005EE007F3812048712069412048A7F061204873B
:0C05FE007F0C1206677F0A7E0002048E4C
:1005CE00AB07AA06EB64014A7006ED144480800B5B
:1005DE00EB64024A7009ED243F44C0FF12048722E7
:0B05570090000CEBF0A3EAF0A3E9F029
:10056200E4FDFC90000CE0FBA3E0FAA3E0F98D822D
:100572008C83120003FF600D12067712048A0DBDF0
:0505820000010C80DE09
:010587002251
:0B03130090000CEEF0A3EFF0A3EDF063
:10031E00A3E4F0A304F0E4A3F0A3F07B01FA9000B1
:10032E000EE0FFC3EB9FEA9400501CA3E0FEA3E097
:10033E00FF7C007D0A12003090000FEEF0A3EFF06C
:10034E000BBB00010A80D7E4FB90000EE0FFEBC36D
:10035E009F5040A3E0FCA3E0FD90000CE0FEA3E064
:10036E00FF1200427C007D0A120042900011ECF058
:10037E00A3EDF02430FF12067790000FE0FEA3E00D
:10038E00FF7C007D0A12004290000FEEF0A3EFF00A
:03039E000B80B61B
:0103A1002239
:07061E0044001C0000000075
:0F062600C2A07F017E00120635D2A17F017E00A7
:0B063500EF1FAC0670011E4C70F62297
:0506BD00D2A0D2A12231
:0D068700C2A1120628C2A0120631C2A12293
:0B06A000C2A1120631120626D2A022D1
:0806B500120626C2A1D2A02208
:0A06AB00D2A0120628C2A1D2A0229C
:10064000E4FEEF3392A0D2A1C2A1EF25E0FF0EEEAF
:06065000B408EF0206B53C
:1005AC00E4FDFB120631D2A1A2A0E4334DFDEBC356
:1005BC0094075004ED25E0FDC2A10BEBB408E4AFA9
:0105CC000529
:0105CD00220B
:10058800AA07120687AF03EF25E044A0FF12064032
:10059800AF05120640AF021206401206A07F057E84
:0405A8000002048EBB
:02052100AB0726
:10052300120687ED25E044A0FF120640AF03120632
:1005330040120687AF05EF25E044A1FF12064012E3
:1005430005ACAD071206AB1206A07F0A7E001206A9
:0305530035AF05BC
:010556002282
:06042E0090000C1200BD5D
:07043400E4900011F0A3F0B9
:10043B00900011A3E0FB75F008A4F990000CE0FC10
:10044B00A3E0FDA3E0FEA3E0FFA80112009790003C
:0E045B0013EFF0900010E02BFDE4FB1205887B
:10046900900012E004F07006900011E004F0C390CF
:0D0479000012E09404900011E0940040B5E2
:010486002253
:0502830090000CEFF0FB
:1002880090000F1200C900000000E490000DF0A3D8
:10029800F090000DE0FEA3E0FFC39404EE9400503C
:0102A8005BFA
:1002A90090000CE02FFFE4FD120521900013EFF000
:1002B90090000FE0F8A3E0F9A3E0FAA3E0FBC00087
:1002C900C001A3E0FFE4FCFDFE90000DA3E075F082
:1002D90008A4F9F81200AAD001D000EB4FFFEA4EAA
:0B02E900FEE94DFDE84CFCA31200BD37
:1002F40090000EE004F0709D90000DE004F08095F5
:0E03040090000FE0FCA3E0FDA3E0FEA3E0FFED
:0103120022C8
:030000000203A256
:0C03A200787FE4F6D8FD7581070203E9BE
:10000300BB010CE58229F582E5833AF583E02250B2
:1000130006E92582F8E622BBFE06E92582F8E222FC
:0D002300E58229F582E5833AF583E4932216
:10003000EF8DF0A4A8F0CF8CF0A428CE8DF0A42EE4
:02004000FE229E
:10004200BC000BBE0029EF8DF084FFADF022E4CCA2
:10005200F875F008EF2FFFEE33FEEC33FCEE9DEC6B
:10006200984005FCEE9DFE0FD5F0E9E4CEFD22EDB1
:10007200F8F5F0EE8420D21CFEADF075F008EF2FFB
:10008200FFED33FD4007985006D5F0F222C398FDEC
:050092000FD5F0EA2289
:10009700E8600FECC313FCED13FDEE13FEEF13FF47
:0300A700D8F1226B
:1000AA00E8600FEFC333FFEE33FEED33FDEC33FCB4
:0300BA00D8F12258
:0C00BD00ECF0A3EDF0A3EEF0A3EFF022B6
:1000C900A8828583F0D083D0821200E01200E0126A
:1000D90000E01200E0E473E493A3C583C5F0C5838F
:1000E900C8C582C8F0A3C583C5F0C583C8C582C881
:0100F90022E4
:1004D4009000201200FA7810EC4D4E4F70047CA569
:1004E4007DA5C3EC13FCED13FDEE13FEEF13FF50DB
:1004F40010EC64CCFCED644CFDEE644EFEEF64CE77
:10050400FFD8DF9000201200BDEE547FFE22900041
:0D05140020EEF0EFA3F0A374A5F0A3F022F9
:1003AE00020106E493A3F8E493A34003F68001F25E
:1003BE0008DFF48029E493A3F85407240CC8C33350
:1003CE00C4540F4420C8834004F456800146F6DF1F
:1003DE00E4800B010204081020408090060AE47E9F
:1003EE00019360BCA3FF543F30E509541FFEE49314
:1003FE00A360010ECF54C025E060A840B8E493A3DB
:10040E00FAE493A3F8E493A3C8C582C8CAC583CA05
:10041E00F0A3C8C582C8CAC583CADFE9DEE780BEBD
:0106250000D4
:0C00FA00E0FCA3E0FDA3E0FEA3E0FF2279
:00000001FF
