:100B3300E4FDFCD3ED9FEC9E5015E4FBFA0BBB00E8
:0F0B4300010AEB64724A70F50DBD00010C80E4ED
:010B52002280
:0D0C1C00D2A00000D2A10000C2A000002262
:090C3300C2A1D2A0D2A1C2A022EC
:090C3C00C2A1C2A0D2A1D2A022E3
:0F0BC3007E001209DA120BD2AF037E001209DA9C
:0A0BD200C2A1D2A0D2A120A0FD22F2
:07000300C2A1D2A0D2A1228C
:1009DA00AD07AC06E4F512C2A17E007480A8120825
:1009EA008006CEA2E713CE13D8F8FFEE5CFEEF5DC9
:1009FA004E6003D38001C392A0D2A10512E512B4BE
:030A0A0008D522EA
:100A8000E4F514F513C2A1D2A130A00FAF13A8074B
:100A90007480088002C313D8FC42140513E513B414
:050AA00008E3AF142281
:100B7300AB05AA07120C1C7FA0120BCDAF02120B00
:0B0B8300C3120C3C7F0A7E00020B3303
:020B8E00AB07B3
:100B9000120C1C7FA0120BC3120C337FA1120BCDC1
:090BA000120A80120003020C3C51
:030BDC0001150000
:0409A3007F017E0052
:0409A7008E098F0A1C
:1009AB00750B01D3E50B950AE495095021E4FFC2C1
:1009BB0095E4FE0EBE32FCD295E4FE0EBE32FC0F69
:0E09CB00BFFAEC7FF47E01120AEE050B80D518
:0109D90022FB
:10069500C297D296D295D2942093107F647E001291
:1006A5000AEE2093061209A37F37222092107F6459
:1006B5007E00120AEE2092061209A37F38222091AD
:1006C500107F647E00120AEE2091061209A37F397D
:1006D500222090107F647E00120AEE2090061209F7
:1006E500A37F2F22D297C296D295D2942093107FC2
:1006F500647E00120AEE2093061209A37F3422209D
:1007050092107F647E00120AEE2092061209A37FE2
:1007150035222091107F647E00120AEE2091061288
:1007250009A37F36222090107F647E00120AEE20F6
:1007350090061209A37F2A22D297D296C295D29407
:100745002093107F647E00120AEE2093061209A3FF
:100755007F31222092107F647E00120AEE209206DD
:100765001209A37F32222091107F647E00120AEEC7
:100775002091061209A37F33222090107F647E000A
:10078500120AEE2090061209A37F2D22D297D29647
:10079500D295C29420932A7F647E00120AEE20939C
:1007A50013E515C3940A500C1209A305157FA01271
:1007B5000A3480EAE515C3940A40037F63227F4328
:1007C500222092107F647E00120AEE209206120902
:1007D500A37F30222091107F647E00120AEE2091C3
:1007E500061209A37F3D222090107F647E00120A25
:0F07F500EE2090061209A37F2B22D294020695C4
:100AEE00E4FDFCC3ED9FEC9E5018758CFC758A647A
:100AFE00C28DD28C308DFDC28DC28C0DBD00010C0D
:020B0E0080E184
:010B100022C2
:100A3400E4FDFCEFFBC3ED9BEC94005018758D4B6B
:100A4400758BFDC28FD28E308FFDC28FC28E0DBDCD
:050A540000010C80DE32
:010A5900227A
:060B1100C2A5EB54F0FF49
:100B1700EFA2E49284A2E59285A2E69286339287B9
:0C0B2700D2A77F047E00120AEEC2A722B3
:0F0BEF00AB07C2A6120B11EBC454F0FF020B1799
:0F0BFE00AB07D2A6120B11EBC454F0FF020B177A
:100B53007F647E00120AEE7F02120BEF7F28120BD6
:100B6300EF7F0C120BEF7F01120BEF7F80020BEF75
:040AA5007E007C0053
:100AA9008E0E8F0FE50F6401450E7005ED248080D1
:100AB9000BE50F6402450E7007ED24C0FF120BEF22
:010AC900220A
:050C45007F01020BEF2E
:080A0D008E0E8F0F8C108D116D
:100A15007F017E00E4FBEBC39511E5106480F8745B
:0E0A25008098500AAC0EAD0F1202A00B80E8B4
:010A330022A0
:040966008A0B8B0C61
:10096A00120AA5AA0DEAD39400402DEA24FFFDE459
:10097A0034FFFC7F0A7E00120A0DAC0BAD0CCFCD02
:10098A00CFCECCCE1202B27C007D0A1202B2ED2486
:08099A0030FF120BFE1A80CDA4
:0109A2002232
:0A0C2900AA03120AA5AF02020BFE97
:060A5A008B098A0A890BDA
:100A6000120AA5E4F50CAB09AA0AA90B850C82753C
:0F0A70008300120273FF6007120BFE050C80E774
:010A7F002254
:1008FE0047656E65726174652050617373776F72B0
:10090E006400456E7465722050617373776F726404
:10091E0000446F6F7220556E6C6F636B656400449C
:10092E006F6F72204C6F636B6564005379737465DF
:10093E006D2044697361626C65640057726F6E67F7
:10094E002050617373776F726400456E7465722008
:08095E004F6C642050696E002B
:0F0BDF0001460001470001210A014E00013700C5
:0F0C0D00758901758CB7758AFD75A882D28C2206
:03000B00020BA93C
:100BA900C0E0B290309009E544F58C85458A80070C
:0A0BB900E52CF58C852D8AD0E03282
:10089000E4FBFA79347843120117E4FBFA79207803
:1008A0004112000E8F0C8E0B8D0A8C09750D487548
:1008B0000E02AC0DAD0EE41201B9E4FBFA79C87872
:1008C00042120117AB0CAA0BA90AA80912000E12BA
:1008D00001F28E448F45C3E50E9545F52DE50D9546
:1008E00044F52CC374FF9545F54574FF9544F544D4
:0D08F000C374FF952DF52D74FF952CF52C8C
:0108FD0022D8
:100ACA0012069574482547F8A60774482547F8E69C
:100ADA00FDAF47120B7374482547F8E6FBAD477F15
:040AEA0002020C29CF
:10036400120B53120C0D020639E50814603F147089
:100374000302051F147003020575240370EB120CAD
:10038400457BFF7A0879FEE4FD7F01120A5AE547AE
:10039400C394065007120ACA054780CD7DAA7FCFB1
:1003A400120B737508017FB8120A3480BC120C4515
:1003B4007FFE120B8E8F2BE52B6406700302055E05
:1003C400E4F546AF46120B8E74382546F8A60705A9
:1003D40046E546C3940640EBAF3DE4FCFDFE7BA03E
:1003E4007A867901F8120307E53CC454F02FFFE53F
:1003F4003B75F0E8A42FFFE53A75F064A42FFFE500
:100404003975F00AA42F2538F5237BFF7A09791072
:10041400E4FD7F01120A5AE4F5461206958F2FE592
:100424002FB46305750803801E743E2546F8A62F75
:10043400743E2546F8E6FBAD467F02120C290546BC
:10044400E546C3940640D37FD07E07120AEEAF433D
:10045400E4FCFDFE7BA07A867901F8120307E542ED
:10046400C454F02FFFE54175F0E8A42FFFE5407573
:10047400F064A42FFFE53F75F00AA42F253EF53064
:10048400E5086403700302036DE52365306003022D
:100494000519120C457BFF7A09791FE4FD7F0112CF
:1004A4000A5A7F057E001209A77FE87E03120AEE2E
:1004B4007F007E007D007C001208907FF47E011294
:1004C4000AEEE4F5461521E521FB7A00750D017D60
:1004D400067F021209667FA0120A340546E546C368
:1004E400940A40E17F057E001209A77BFF7A09790F
:1004F4002DE4FD7F01120A5A7F007E007D347C4387
:100504001208907FD07E07120AEE120C45E4F54ED5
:1005140075210A803575080202036DE54EC3940502
:10052400502E120C457BFF7A097949E4FD7F0112B4
:100534000A5AE54EFB7A00750D017D057F0212090A
:10054400667F0A7E001209A7054E75080102036D35
:100554007D067FFA120B73120C457BFF7A097939F9
:10056400E4FD7F01120A5A7F887E131209A7020351
:100574006D120C457BFF7A097958E4FD7F01120A5C
:100584005AE4F546AF46120B8E74312546F8A60799
:100594000546E546C3940640EBAF36E4FCFDFE7B1E
:1005A400A07A867901F8120307E535C454F02FFFC9
:1005B400E53475F0E8A42FFFE53375F064A42FFF4C
:1005C400E53275F00AA42F2531F52EE4F54612061E
:1005D4009574252546F8A60774252546F8E6FBAD4F
:1005E400467F02120C290546E546C3940640DF7F88
:1005F400D07E07120AEEAF2AE4FCFDFE7BA07A86C9
:100604007901F8120307E529C454F02FFFE5287592
:10061400F0E8A42FFFE52775F064A42FFFE5267505
:10062400F00AA42F2525F524B52E107DFF7FD412C2
:100634000B73120C45E4F50802036DE537C394030C
:10064400502E120C457BFF7A097949E4FD7F011293
:100654000A5AE537FB7A00750D017D057F02120900
:10066400667F0A7E001209A7053775080302036D29
:100674007D067FFA120B73120C457BFF7A097939D8
:10068400E4FD7F01120A5A7F887E131209A7020330
:010694006DF8
:10000E00EC4D6011E8497017ED33EC3304600DE4EC
:10001E00FCFFFEFD22E933E8330470F802025E12A3
:10002E00022958046009E4CC2481500628500902A4
:10003E000268284003020265C0E0EB4A7044B980B2
:10004E0006D0E0FB020254EF4E701CBD8008EBFFA1
:10005E00EAFEE9FD80EBE98DF0A4FEE5F00200F783
:10006E00E9CDF9EAFEEBFFEF89F0A4FCE5F0CE89CD
:10007E00F0A42EFFE435F0CD89F0A42DFEE435F08A
:10008E008067EF4E7005BD80D780C3EF8BF0A4ACB8
:10009E00F0EE8BF0A42CFCE435F0F8EF8AF0A42CF3
:1000AE00E5F038FCE433CB8DF0A42CFCE5F03BF806
:1000BE00EE8AF0A42CFCE5F038F8E433CF89F0A4F6
:1000CE002CFCE5F038CF3400CE89F0A42FFFE5F0FC
:1000DE003EFEE433C98DF0A42EFEE5F039CD8AF054
:1000EE00A42FFFE5F03EFEE43DFD33D0E0FB5007CC
:1000FE000BBB000F020268EC2CFCEF33FFEE33FE5D
:06010E00ED33FD0202408A
:10011400020268EC5D046005E85904700302025EA3
:10012400120229580460F6EC4860F2EC7004FDFEFB
:10013400FF22C860DB2481C85009C39860025006BE
:100144000202659850CAF582E9294B4A7005AB82D0
:1001540002025475F0007C1A7880C3EF9BEE9AED8E
:1001640099400DC3EF9BFFEE9AFEED99FDE842F036
:10017400DC23ACF0D0E0FFD0E0FED0E0FDAB822089
:10018400E7101BEB60BAEC2CFCEF33FFEE33FEED13
:1001940033FD020240E803F830E705C0F075F000D3
:1001A400EF2FFFEE33FEED33FD40B830E7C280AAF7
:1001B40075F020800E75F010800575F0087D007EC6
:1001C400007F003392D530D503120356EC33401030
:1001D400EF33FFEE33FEED33FDEC33FCD5F0ED22CF
:0E01E400E5F0247EA2D513CC92E7CDCEFF220B
:1001F200EDD2E7CD33EC3392D524814006E4FFFE05
:10020200FDFC22FCE4CFCECDCC24E0501174FF8063
:10021200EDC3CC13CCCD13CDCE13CECF13CF047000
:07022200F030D5DE020356A7
:10022900E9D2E7C933E833F892D5EDD2E7CD33EC1B
:0702390033FC5002B2D52294
:10024000EC30E7100FBF000C0EBE00080DBD00041F
:100250000BEB6014A2D5EB13FCED92E7FD2274FFCB
:10026000FCFDFEFF22E480F8A2D574FF13FC7D8024
:03027000E480EF38
:03000000020804EF
:0C080400787FE4F6D8FD75814E02084BA9
:10027300BB010CE58229F582E5833AF583E0225040
:1002830006E92582F8E622BBFE06E92582F8E2228A
:0D029300E58229F582E5833AF583E49322A4
:1002A000EF8DF0A4A8F0CF8CF0A428CE8DF0A42E72
:0202B000FE222C
:1002B200BC000BBE0029EF8DF084FFADF022E4CC30
:1002C200F875F008EF2FFFEE33FEEC33FCEE9DECF9
:1002D200984005FCEE9DFE0FD5F0E9E4CEFD22ED3F
:1002E200F8F5F0EE8420D21CFEADF075F008EF2F89
:1002F200FFED33FD4007985006D5F0F222C398FD7A
:050302000FD5F0EA2216
:10030700E88FF0A4CC8BF0A42CFCE98EF0A42CFC95
:100317008AF0EDA42CFCEA8EF0A4CDA8F08BF0A413
:100327002DCC3825F0FDE98FF0A42CCD35F0FCEB72
:100337008EF0A4FEA9F0EB8FF0A4CFC5F02ECD3937
:0F034700FEE43CFCEAA42DCE35F0FDE43CFC22A4
:0E035600C3E49FFFE49EFEE49DFDE49CFC22B8
:10081000020364E493A3F8E493A34003F68001F297
:1008200008DFF48029E493A3F85407240CC8C333E9
:10083000C4540F4420C8834004F456800146F6DFB8
:10084000E4800B0102040810204080900BDCE47E61
:10085000019360BCA3FF543F30E509541FFEE493AD
:10086000A360010ECF54C025E060A840B8E493A374
:10087000FAE493A3F8E493A3C8C582C8CAC583CA9F
:10088000F0A3C8C582C8CAC583CADFE9DEE780BE57
:010BEE000006
:00000001FF
